:020000040800F2
:1000000050040020010100082B040008F10300083F
:10001000270400086D010008050B0008000000001F
:10002000000000000000000000000000D1050008F2
:10003000D102000800000000D9040008E50600080D
:100040001B0100081B0100081B0100081B01000820
:100050001B0100081B0100081B0100081B01000810
:100060001B0100081B0100081B0100081B01000800
:100070001B0100081B0100081B0100081B010008F0
:100080001B0100081B0100081B0100081B010008E0
:100090001B0100081B0100081B0100081B010008D0
:1000A0001B0100081B0100081B0100081B010008C0
:1000B0001B0100081B0100081B0100081B010008B0
:1000C0001B0100081B0100081B0100081B010008A0
:1000D0001B010008490700081B0100081B0100085C
:1000E0001B0100081B0100081B010008DFF80CD0F1
:1000F00000F02AF800480047250C000850040020B2
:100100000648804706480047FEE7FEE7FEE7FEE7B1
:10011000FEE7FEE7FEE7FEE7FEE7FEE7E90600088A
:10012000ED000008D2B201E000F8012B491EFBD21D
:1001300070470022F6E710B513460A4604461946F2
:10014000FFF7F0FF204610BD064C074D06E0E068C3
:1001500040F0010394E8070098471034AC42F6D30E
:10016000FFF7C8FF540F0008740F000800BFFEE738
:100170002DE9F04104464FF0000800260027B42581
:100180004C48007800287CD04FF400714A4800F0B9
:100190002BF94848007800F0010090B145480078FC
:1001A00080F001004349087015260627434801687E
:1001B00021608188A1808079A071A8193844C5B2D6
:1001C0005EE03C48007800F0020090B139480078C9
:1001D00080F0020037490870252606273848016854
:1001E00021608188A1808079A071A8193844C5B2A6
:1001F00046E03048007800F0040090B12D480078C7
:1002000080F004002B490870352606272D48016828
:1002100021608188A1808079A071A8193844C5B275
:100220002EE02448007800F0080090B121480078C2
:1002300080F008001F4908704526062722480168FB
:1002400021608188A1808079A071A8193844C5B245
:1002500016E01848007800F0100088B115480078C2
:1002600080F01000134908706526082717480168B8
:10027000216041686160007A2072A8193844C5B2D3
:1002800000E015E04FF0000807E014F808002844EB
:10029000C5B208F1010000F0FF08B845F5DB14F81D
:1002A0000800A84202D00020BDE8F0813046FBE7FC
:1002B0000020F9E714000020000C01401500002088
:1002C0001C000020230000202A000020380000200D
:1002D00070472DE9F041024600250026002000234A
:1002E0000024002791F803C00CF00F0591F803C01B
:1002F0000CF0100CBCF1000F03D091F802C04CEAD6
:10030000050591F800C0BCF1000F31D01468002041
:100310002BE04FF0010C0CFA00F3B1F800C00CEA2E
:1003200003069E4220D183004FF00F0C0CFA03F716
:10033000BC4305FA03FC4CEA040491F803C0BCF189
:10034000280F06D14FF0010C0CFA00FCC2F814C0C3
:100350000AE091F803C0BCF1480F05D14FF0010C41
:100360000CFA00FCC2F810C0401C0828D1D314605D
:10037000B1F800C0BCF1FF0F34DD546800202EE05E
:1003800000F1080C4FF0010808FA0CF3B1F800C0B6
:100390000CEA03069E4221D183004FF00F0C0CFAA9
:1003A00003F7BC4305FA03FC4CEA040491F803C0CC
:1003B000BCF1280F05D100F1080C08FA0CF8C2F8BE
:1003C000148091F803C0BCF1480F07D100F1080C6C
:1003D0004FF0010808FA0CF8C2F81080401C0828F9
:1003E000CED35460BDE8F081416170470161704730
:1003F00000BFFEE7F8B506460C4615460121284623
:1004000000F06CF8ADF8004010208DF803000320D8
:100410008DF8020069463046FFF75BFF2146304603
:10042000FFF7E4FFF8BD00BFFEE7704708B54FF4E3
:10043000A06000F047F825208DF8000000208DF81E
:1004400001008DF8020001208DF80300684600F0DD
:1004500001F808BD70B5002100230F22C47804B351
:10046000154C246804F4E064C4F5E064210AC1F189
:100470000403CA40447804FA03F184781440214309
:1004800009010E4C0678A155047804F01F050124DB
:10049000AC4005786D11AD0005F1E025C5F80041CF
:1004A00009E0047804F01F050124AC40044D0678EF
:1004B000761145F8264070BD0CED00E000E400E048
:1004C00080E100E002490143024A116070470000E8
:1004D0000000FA050CED00E07047000029B1064A63
:1004E00092690243044B9A6104E0034A9269824391
:1004F000014B9A61704700000010024030B50021A6
:100500000022002400232D4D6D6805F00C0121B15F
:10051000042905D0082923D105E0294D056022E0F2
:10052000274D05601FE0254D6D6805F47012234DC1
:100530006D6805F48034022505EB92421CB9214D0B
:10054000554305600BE01D4D6D6805F400351DB188
:100550001C4D5543056002E0194D5543056002E00E
:10056000174D056000BF00BF144D6D6805F0F00128
:100570000909154D6B5C0568DD4045600F4D6D68E0
:1005800005F4E061090A104D6B5C4568DD4085604B
:100590000A4D6D6805F46051C90A0B4D6B5C4568E6
:1005A000DD40C560054D6D6805F44041890B074D80
:1005B0006B5CC568B5FBF3F5056130BD001002400A
:1005C00000127A0000093D00000000201000002009
:1005D000704710B500F002F810BD00000CB5002007
:1005E000019000903348006840F480303149086041
:1005F00000BF3048006800F4003000900198401CB3
:100600000190009818B90198B0F5A06FF1D1294870
:10061000006800F4003010B10120009001E00020DB
:1006200000900098012843D12348006840F0100052
:10063000214908600846006820F003000860084669
:10064000006840F0020008601A4840681949486094
:100650000846406848600846406840F4806048604A
:100660000846406820F47C1048600846406840F422
:10067000E81048600846006840F08070086000BFDD
:100680000C48006800F000700028F9D00948406864
:1006900020F00300074948600846406840F0020027
:1006A000486000BF0348406800F00C000828F9D1FA
:1006B0000CBD00000010024000200240042808D1B8
:1006C0004FF0E021096941F004014FF0E02211618F
:1006D00007E04FF0E021096921F004014FF0E0222A
:1006E000116170477047000010B51348006840F072
:1006F00001001149086008464068104908400E4949
:100700004860084600680E4908400B4908600846E2
:10071000006820F4802008600846406820F4FE004D
:1007200048604FF41F008860FFF753FF4FF00060F0
:100730000449086010BD0000001002400000FFF8EE
:10074000FFFFF6FE08ED00E010B540F225515848D5
:1007500000F0E2F8002878D0554800F099F9C1B2CD
:10076000544802780078401C524B1870524881540B
:1007700000785A2802D00020194608704D480078A9
:10078000022806D14C4840785A2802D00020494916
:10079000087048480078042872DD4748807835287A
:1007A00020D004DC152807D025283CD10FE04528AF
:1007B00023D0652837D12BE03E480078401E3E49C3
:1007C000095C3C480078401F3C4A11542BE03948F2
:1007D0000078401E3849095C36480078401F384A86
:1007E000115420E033480078401E3349095C3148F9
:1007F0000078401F334A115415E02E480078401EFF
:100800002D49095C2B480078401F2F4A11540AE0FB
:1008100028480078401E2849095C26480078401F77
:100820002A4A115400BF00BF2348C078401D214907
:100830000978884237D120488078352819D005DCDE
:10084000152808D025282AD10CE030E0452818D0FA
:10085000652824D11CE01E48007840F001001C49A6
:1008600008701CE01A48007840F00200184908702F
:1008700015E01748007840F00400154908700EE0B4
:1008800011E01348007840F008001149087006E0B4
:100890000F48007840F010000D49087000BF00BFFD
:1008A0000020044908702021014800F013F810BD11
:1008B00000380140310000204100002015000020D8
:1008C0001C000020230000202A0000203800002007
:1008D0001400002001F40072B2F5007F00D100BFC7
:1008E000CA430280704721B1828942F4005282815A
:1008F00004E082894DF6FF731A40828170470246F8
:100900000020B1F5007F00D100BF13880B400BB170
:10091000012000E00020704770B50246002400234B
:100920000025002040F66A16B14200D100BFC1F395
:10093000421501F01F03012606FA03F3012D02D12F
:100940009689334006E0022D02D1168A334001E039
:10095000968A33400C12012606FA04F416883440B5
:1009600013B10CB1012000E0002070BDF0B50346CA
:10097000002400260025002040F66A17B94200D165
:1009800000BF1846C1F3421401F01F06012707FA01
:1009900006F5012C01D10C3004E0022C01D11030FD
:1009A00000E014301AB107682F43076002E00768BF
:1009B000AF430760F0BD00002DE9F04786B0054663
:1009C0000E460024A24600BFA1460027B08900B110
:1009D00000BF2F462C8A4CF6FF700440F088044379
:1009E0002C82AC894EF6F3100440B088318908435C
:1009F000718908430443AC81AC8A4FF6FF40044040
:100A0000B0890443AC8201A8FFF778FD1F488742F4
:100A100002D1DDF810A001E0DDF80CA0A88900F4F7
:100A2000004040B10AEBCA0000EB0A1031684900EF
:100A3000B0FBF1F807E00AEBCA0000EB0A103168DE
:100A40008900B0FBF1F86420B8FBF0F00401200944
:100A5000642101FB1089A88900F4004040B13220D4
:100A600000EBC900B0FBF1F000F00700044308E020
:100A7000322000EB09106421B0FBF1F000F00F0010
:100A800004432C8106B0BDE8F08700000038014027
:100A900001468888C0F30800704770B504460D46CB
:100AA00000260EE0681EB04205DD205CA15D084412
:100AB000C1B2681E21543146721CD6B2605C00F08F
:100AC00011F8AE42EEDB70BD70B504460D4600264F
:100AD00005E03146721CD6B2605C00F003F8AE420D
:100AE000F7DB70BD10B5044600BF40210448FFF796
:100AF00006FF0028F9D00248001D048010BD000048
:100B00000038014000BFFEE710B586B00446012161
:100B100044F20500FFF7E2FC4FF40070ADF814005A
:100B200003208DF8160018208DF8170005A9154828
:100B3000FFF7CFFB4FF48060ADF8140004208DF870
:100B4000170005A90F48FFF7C4FB01940020ADF87A
:100B50000800ADF80A00ADF80C00ADF810000C204C
:100B6000ADF80E0001A90848FFF726FF012240F268
:100B700025510548FFF7FAFE01210348FFF7B3FEB0
:100B800006B010BD000801400038014002E008C86E
:100B9000121F08C1002AFAD170477047002001E0F7
:100BA00001C1121F002AFBD17047000010B5044696
:100BB0006FF00400FFF782FDE11704EB5171C1F300
:100BC000C701074A11701046007800EB4001C1EBE5
:100BD000C0104FF6FF7101EAC0000249088010BD45
:100BE000320000203400002001460D4A12884A439A
:100BF0004FF0E0235A6100229A6101221A6100BF7E
:100C00004FF0E022106900F001021AB100F48032C6
:100C1000002AF5D000224FF0E0231A619A61704754
:100C2000340000208EB000200B900C900D9000241A
:100C30000025002609900A900790089005900690DC
:100C400003900490019002904820FFF7AFFF082224
:100C500091016C48FFF7CEFB4FF4E130FFF754FFF2
:100C6000FFF7E4FB00F0D0F84FF400716548FFF7A0
:100C7000BDFBC6E04FF400716248FFF7B7FB0BA85D
:100C8000FFF776FA35284CD004DC152807D0252844
:100C90007ED125E0452865D06528F9D185E09DF80D
:100CA0002D009DF82C1040EA012000B2ADF81C0088
:100CB0009DF82F009DF82E1040EA012000B2ADF8FB
:100CC0001E009DF831009DF8301040EA012000B26E
:100CD000ADF820001522032107A800F0FFF88FE0EF
:100CE0009DF82D009DF82C1040EA012000B2ADF8CF
:100CF00014009DF82F009DF82E1040EA012000B24C
:100D0000ADF816009DF831009DF8301040EA012042
:100D100000B2ADF818002522032105A800F0DEF886
:100D20006EE09DF82D009DF82C1040EA012000B2E5
:100D3000ADF80C009DF82F009DF82E1040EA012020
:100D400000B2ADF80E009DF831009DF8301040EA79
:100D5000012000B2ADF810003522032103A800F0F5
:100D6000BDF84DE09DF82D009DF82C1040EA0120C3
:100D700004B29DF82F009DF82E1040EA012005B224
:100D80009DF831009DF8301040EA012006B200E0E5
:100D900035E0ADF82440ADF82650ADF82860452286
:100DA000032109A800F09AF82AE09DF82D009DF88B
:100DB0002C1040EA012000B2ADF804009DF82F008D
:100DC0009DF82E1040EA012000B2ADF806009DF813
:100DD00031009DF8301040EA012000B2ADF8080063
:100DE0009DF833009DF8321040EA012000B2ADF8C2
:100DF0000A006522042101A800F070F800E000BF9D
:100E000000BF37E7000C014008B500200090A52086
:100E10008DF8000015208DF801009DF800009DF868
:100E200001100844C0B28DF8020003216846FFF7A4
:100E30004BFE0120FFF7D8FEA5208DF800002520ED
:100E40008DF801009DF800009DF801100844C0B223
:100E50008DF8020003216846FFF736FE0120FFF7F8
:100E6000C3FEA5208DF8000035208DF801009DF807
:100E700000009DF801100844C0B28DF80200032163
:100E80006846FFF721FE0120FFF7AEFEA5208DF892
:100E9000000045208DF801009DF800009DF801102C
:100EA0000844C0B28DF8020003216846FFF70CFE2B
:100EB0000120FFF799FEA5208DF8000065208DF830
:100EC00001009DF800009DF801100844C0B28DF8A3
:100ED000020003216846FFF7F7FD08BD2DE9F04148
:100EE00086B007460D469046002400266800411D46
:100EF00001A8FFF71EF95A222146641C01A842549A
:100F00002146641C42542146641C00F80180680696
:100F1000020E2146641C01A8425400BF11E037F8BC
:100F20001600C0F307222046611CCCB201A90A5466
:100F300017F816202046611CCCB201A90A54701C77
:100F4000C6B2AE42EBDB142101A8FFF7A6FD06B046
:100F5000BDE8F081740F0008000000203800000098
:100F60008C0B0008AC0F00083800002018040000AB
:100F70009C0B0008000000000102030401020304AE
:100F8000060708090204060800000000000000002F
:100F90000000000000000000000000000000000051
:0C0FA00000000000000000000000000045
:04000005080000ED02
:00000001FF
