:0809A20000000000000000004D
:10030F00E4F522F523F524F525F526F527F528F54F
:10031F0029F52AF52B782C7C00FD7BFF7A0979A231
:10032F00FE7F081200F61209997F807E257D007CE2
:10033F00001208FCD20075340112097175B810E56E
:10034F007B60FC75237C7B007A0079237544017FE9
:10035F004112092AE57B6029E5B06025E4F525E522
:10036F00252481FF74572525F9E4FAFB753801120E
:10037F0008CD0525E525C3942440E4752201E4F555
:10038F007BE52260CFD280E4F522FB7A0079571209
:10039F0004C1E50D30E362E4F524F525746B2525E2
:1003AF00F8E62524F5240525E525B406EF7B007A2C
:1003BF000079237538017FA81208CDE524652370D5
:1003CF0038E56BF526E56CF527E56DF528E56EF557
:1003DF0029E56FF52AE570F52B85262C85272D85C8
:1003EF00282E85292F852A30852B317B007A00799D
:1003FF002C7544457D0312070AE50D30E026E559BB
:10040F00F52CE55AF52DE55BF52EE55CF52FE55D51
:10041F00F530E55EF5317B007A00792C7544157D5A
:10042F000312070AE50D30E126E55FF52CE560F5CF
:10043F002DE561F52EE562F52FE563F530E564F501
:10044F00317B007A00792C7544257D0312070AE56C
:10045F000D30E226E565F52CE566F52DE567F52E01
:10046F00E568F52FE569F530E56AF5317B007A002F
:10047F00792C7544357D0312070AE50D30E42EE51E
:10048F0071F52CE572F52DE573F52EE574F52FE575
:10049F0075F530E576F531E577F532E578F5337BAF
:1004AF00007A00792C7544657D0412070AD2AA02DE
:0204BF000363D5
:09099900D2B4D2B5D2B7D2B62215
:10095600D2B5E4FEEF3392B7EF25E0FFC2B5A2B6FB
:0A096600E4334207D2B50EBE08EAE2
:010970002264
:06092A008B418A42894363
:10093000E4FDC2B48018EDC395445017AB41AA4200
:10094000A943AF050D8F82758300120135FF12098F
:050950005680E3D2B463
:01095500227F
:0608CD008B358A368937E5
:1008D300E4FDC2B4120956EDC395385019E4FF1272
:1008E3000956AB35AA36A937AE050D8E827583003E
:0808F300EF12019580E1D2B47F
:0108FB0022DA
:10088B0020245700000000000000000000000000C2
:10089B00000000000000000000000000000000004D
:0A08AB0000000000000000017B00C7
:10097100E53430000A25E025E0428843A88422427C
:050981008843A881225B
:0809AA00000000000000000045
:0C08B500010F00011000010E00010D00F9
:1008FC008F378E368D358C34759850438920AB37B5
:10090C00AA36A935A834E47F807E70FDFC12022B38
:0E091C00EFF404F58DF58B43884043A890223C
:0A001600E50F70FC8F99750F0122B1
:060838008B538A54895520
:10083E00E4F556E556C39D5043ED14FFE556C39FB0
:10084E005022AB53AA54A9558556827583001201C6
:10085E0035FFED75830024FFF582E58334FFF583C4
:10086E00EF120162AB53AA54A955AF5605568F82AB
:0C087E00758300120135FF12001680B7D0
:01088A00224B
:08070A008B408A4189428D43B6
:10071200E4F552FDE54375F002A42405FFE435F04B
:10072200FE7B007A0079451202E3AF52055274450E
:100732002FF8765AAF52055274452FF8765AAF52B7
:10074200055274452FF8A644E54325E0FFAE520555
:100752005274452EF8A607E4FDEDC39543503BAB1A
:1007620040AA41A94275F002EDA4F58285F08312F8
:1007720001B7E5F0FFAE52055274452EF8A6077593
:10078200F002EDA4F58285F0831201B7FFAE5205A7
:100792005274452EF8A6070D80BF7B007A0079457A
:0A07A200E54325E02405FD020838B8
:0B000300EF1FAC0670011E4C70F622CF
:0604C1008B348A358936F8
:1004C70078377C007D007BFF7A0979AA7E007F0858
:1004D7001200F6E50E24FE604D04600302056DABC5
:1004E70034AA35A936900023120135FFC4540F757D
:1004F70037005403F538EF1313543F75390054038D
:10050700F53A9000231201355403753B00F53C1270
:10051700011C5407753D00F53E7B007A007937755D
:1005270044757D04803BAB34AA35A936900022126E
:100537000135FFC4540F7537005403F538EF131313
:10054700543F7539005403F53A900022120135548F
:1005570003753B00F53C7B007A0079377544857D50
:100567000312070A8000E4F50EE51014B40A0040F0
:100577000302061090058975F003A4C58325F0C50D
:1005870083730205A70205A90205AE0205B302059A
:10059700B80205BD0205A70205DD0205ED0205FD4E
:1005A7008024753F7C8022753F7D801D753F1580B7
:1005B70008753F198003753F917B007A00793F7575
:1005C70044017F42803E753F7B7B007A00793F750F
:1005D70044017F41802E753F6B7B007A00793F7520
:1005E70044017F41801E753F5B7B007A00793F7530
:1005F70044017F41800E753F3B7B007A00793F7550
:0C06070044017F4112092A8000E4F51034
:0106130022C4
:0B08C100010C0001080003090000000A
:0300130002098659
:02098600C0E0CF
:0E098800752100E57B7007757B01C2AAC28055
:03099600D0E0327C
:03002300020614BE
:10061400C0E0C083C082C0D075D000C000C006C096
:0106240007CE
:10062500E4309904C299F50F2098030206FBAE0841
:10063500050874092EF8A699C298E509B4A503D34F
:100645008001C34003750800E508640360030206E2
:10065500FBE50A2509650B60030206F8E50A1202A7
:10066500BD06A21506A72506AC35069D4506DE5036
:1006750006E35106E85206ED5306C55706CA580665
:10068500CF5906B16506D47506D98506B6A406BB4D
:10069500A506C0A6000006F2630D088056630D018D
:1006A5008051630D02804C630D048047630D1080FB
:1006B50042751001803D7510028038751003803336
:1006C500751004802E751005802975100680247517
:1006D5000E01801F430E02801A75100780157510D4
:1006E500088010751009800B75100A8006751000BA
:0606F500750E00750800FF
:0F06FB00D007D006D000D0D0D082D083D0E0324C
:030000000207AC48
:0C07AC00787FE4F6D8FD75817B0207F32E
:10002600E709F608DFFA8046E709F208DFFA803EBC
:1000360088828C83E709F0A3DFFA8032E309F608A9
:10004600DFFA8078E309F208DFFA807088828C8311
:10005600E309F0A3DFFA806489828A83E0A3F608C5
:10006600DFFA805889828A83E0A3F208DFFA804C9F
:1000760080D280FA80C680D4806980F28033801076
:1000860080A680EA809A80A880DA80E280CA8033DF
:1000960089828A83ECFAE493A3C8C582C8CCC58357
:1000A600CCF0A3C8C582C8CCC583CCDFE9DEE78027
:1000B6000D89828A83E493A3F608DFF9ECFAA9F0A6
:1000C600EDFB2289828A83ECFAE0A3C8C582C8CCFC
:1000D600C583CCF0A3C8C582C8CCC583CCDFEADE15
:1000E600E880DB89828A83E493A3F208DFF980CC77
:1000F60088F0EF60010E4E60C388F0ED2402B40470
:100106000050B9F582EB2402B4040050AF23234516
:06011600822390007673C5
:10011C00BB010689828A83E0225002E722BBFE02E1
:09012C00E32289828A83E4932214
:10013500BB010CE58229F582E5833AF583E022507F
:1001450006E92582F8E622BBFE06E92582F8E222C9
:0D015500E58229F582E5833AF583E49322E3
:10016200BB010FF8E58229F582E5833AF583E028A1
:10017200F0225009C58229F8E58226F622BBFE0943
:10018200C58229F8E22582F222F8EA2583F583E97D
:030192009328228D
:10019500F8BB010DE58229F582E5833AF583E8F0A0
:1001A500225006E92582C8F622BBFE05E92582C84C
:0201B500F22234
:1001B700BB0110E58229F582E5833AF583E0F5F086
:1001C700A3E0225009E92582F886F008E622BBFE63
:1001D7000AE92582F8E2F5F008E222E5832AF583A9
:0801E700E993F5F0A3E993226E
:1001EF0075F008758200EF2FFFEE33FECD33CDCCC7
:1001FF0033CCC58233C5829BED9AEC99E58298404A
:10020F000CF582EE9BFEED9AFDEC99FC0FD5F0D626
:10021F00E4CEFBE4CDFAE4CCF9A88222B800C1B950
:10022F000059BA002DEC8BF084CFCECDFCE5F0CB8E
:10023F00F97818EF2FFFEE33FEED33FDEC33FCEBC7
:10024F0033FB10D703994004EB99FB0FD8E5E4F982
:10025F00FA227818EF2FFFEE33FEED33FDEC33FC6F
:10026F00C933C910D7059BE99A4007EC9BFCE99A63
:10027F00F90FD8E0E4C9FAE4CCFB2275F010EF2FA8
:10028F00FFEE33FEED33FDCC33CCC833C810D707A8
:10029F009BEC9AE899400AED9BFDEC9AFCE899F8E3
:0E02AF000FD5F0DAE4CDFBE4CCFAE4C8F92276
:1002BD00D083D082F8E4937012740193700DA3A3D0
:1002CD0093F8740193F5828883E4737402936860E4
:0602DD00EFA3A3A380DFE4
:1002E300EF4E6012EF60010EEDBB010B89828A8332
:1002F300F0A3DFFCDEFA2289F05007F709DFFCA93F
:0C030300F022BBFEFCF309DFFCA9F02295
:1007B80002030FE493A3F8E493A34003F68001F245
:1007C80008DFF48029E493A3F85407240CC8C33342
:1007D800C4540F4420C8834004F456800146F6DF11
:1007E800E4800B010204081020408090088BE47E0E
:1007F800019360BCA3FF543F30E509541FFEE49306
:10080800A360010ECF54C025E060A840B8E493A3CC
:10081800FAE493A3F8E493A3C8C582C8CAC583CAF7
:10082800F0A3C8C582C8CAC583CADFE9DEE780BEAF
:0108CC00002B
:00000001FF
