:020000040800F2
:1000000050040020010100080D080008D307000873
:100010000908000873030008B5100008000000007C
:10002000000000000000000000000000410A00087D
:100030001905000800000000D9080008B10C0008EC
:100040001B0100081B0100081B0100081B01000820
:100050001B0100081B0100081B0100081B01000810
:100060001B0100081B0100081B0100081B01000800
:100070001B0100081B0100081B0100081B010008F0
:100080001B0100081B0100081B0100081B010008E0
:100090001B0100081B0100081B0100081D050008CA
:1000A0001B0100081B0100081B0100081B010008C0
:1000B0001B0100081B0100081B0100081B010008B0
:1000C0001B0100081B0100081B0100081B010008A0
:1000D0001B010008150D00081B0100081B0100088A
:1000E0001B0100081B0100081B010008DFF80CD0F1
:1000F00000F01EF900480047E111000850040020FC
:100100000648804706480047FEE7FEE7FEE7FEE7B1
:10011000FEE7FEE7FEE7FEE7FEE7FEE7B50C0008B8
:10012000ED00000840EA01039B0703D009E008C97D
:10013000121F08C0042AFAD203E011F8013B00F8AC
:10014000013B521EF9D27047D2B201E000F8012BF8
:10015000491EFBD270470022F6E710B513460A4647
:1001600004461946FFF7F0FF204610BD0EB540F2D9
:10017000334102910021CDE900110A460B4600F0FF
:1001800038F803B000BDC1F30A5210B5C1F3130132
:1001900040F2FF3341F480119A4201DA002010BD91
:1001A00040F233439A42A2F2334203DC524200F05F
:1001B00003F810BD904010BD202A04DB203A21FA3C
:1001C00002F00021704721FA02F3D040C2F1200270
:1001D000914008431946704710B5002B08DA401CBF
:1001E00041F1000192185B411A4301D120F0010056
:1001F00010BD2DE9F04D92469B4611B1B1FA81F246
:1002000002E0B0FA80F22032904600F0A3F80446F3
:100210000F4640EA0A0041EA0B0153465A4608439A
:1002200013D0114653EA010019D0C8F140025046DC
:10023000FFF7C2FF05460E4650465946424600F0BB
:1002400089F8084305D0012004E020463946BDE87E
:10025000F08D0020054346EAE0762C4337430A98A8
:100260006305E40AA0EB08000022FD0A44EA4754B3
:100270000A3002D500200146E9E70105101969415D
:10028000DDE9084500196941BDE8F04DA4E72DE915
:10029000F04D00231A461B1A8A4103DB0020014659
:1002A000BDE8F08DC1F30A52C1F3130141F480158A
:1002B0004FF0000BD10702D100186D41521E0027EC
:1002C000044640F2FF11384601EB620A3E46804682
:1002D000024600204FF48011FFF76EFFC2197141F2
:1002E000BB1846EB0100B4EB030C75EB000C04D318
:1002F000E41A65EB000517460E46241908F10100C3
:100300006D4180463428E3DDF91946EB0600091BF0
:10031000A84103D24FF0FF32134601E000221346FA
:100320001BEB070046EB0A51BDE8F04DFFF754BF49
:10033000064C074D06E0E06840F0010394E8070032
:1003400098471034AC42F6D3FFF7D4FEB01500083E
:10035000D0150008202A04DB203A00FA02F1002020
:1003600070479140C2F1200320FA03F319439040F3
:10037000704700BFFEE700003EB504460020019034
:10038000029063480078012802D002283AD11FE089
:1003900094F82300C0F30110ADF8040094F8230092
:1003A000C0F38100ADF8060094F8230000F00300CC
:1003B000ADF80800207800F00700ADF80A007522BB
:1003C000042101A801F090F80020514908701DE0B7
:1003D00014F8220FC0F30110ADF804002078C0F328
:1003E0008100ADF8060014F8220900F00300ADF812
:1003F00008008522032101A801F076F80020444975
:10040000087003E000204249087000BF00BF414867
:1004100000780B2876D2DFE800F07506111C273231
:100420003D48535E69007B200090012269464120CF
:1004300000F00CFC00203749087067E07C20009039
:1004400001226946412000F001FC0020314908707A
:100450005CE07D20009001226946412000F0F6FB1F
:1004600000202C49087051E01520009001226946B7
:10047000422000F0EBFB00202649087046E01920DE
:10048000009001226946422000F0E0FB0020214953
:1004900008703BE09120009001226946412000F065
:1004A000D5FB00201B49087030E07B200090012222
:1004B0006946412000F0CAFB00201649087025E07B
:1004C0006B20009001226946412000F0BFFB002014
:1004D000104908701AE05B20009001226946412013
:1004E00000F0B4FB00200B4908700FE03B200090A7
:1004F00001226946412000F0A9FB0020054908704F
:1005000004E0FFE700200349087000BF00BF3EBDC4
:100510001D0000201C0000207047000010B52020A6
:1005200000F01AF868B10748007838B9292206495E
:10053000C12000F06BFB012002490870202000F070
:1005400005F810BD1F0000202400002001490860AC
:100550007047000014040140014600200022074BB0
:100560001B6803EA0102054B14331B680B4013B1EF
:100570000AB1012000E000207047000000040140A3
:10058000002123498279002A3AD00A46126803687A
:100590009A430B461A600A1D126803689A430B1DA2
:1005A0001A60027911440A6803681A430A60184AFB
:1005B0000832126803689A43154B08331A601A1DF3
:1005C000126803689A43124B0C331A604279102A5E
:1005D0000ED11A1F126803681A430D4B08331A60B4
:1005E0001A1D126803681A43094B0C331A600DE098
:1005F0000749427911440A6803681A430A6005E012
:10060000027911440A6803689A430A60704700003F
:10061000000401402DE9FE4F82460C46914601211F
:10062000092000F05BF9ADF8084028208DF80B0098
:1006300002A9504600F03EF82046FFF797FD074616
:1006400000F090FF0546FFF79EFD00F0FF0B5946B6
:10065000484600F00FF8009400208DF804000820B0
:100660008DF8050001208DF806006846FFF788FF29
:10067000BDE8FE8F30B500228B071C0F0F2303FA55
:1006800004F20B4B8C1053F824309343084C8D101C
:1006900044F8253023468C1053F824308C07240F5F
:1006A00000FA04F42343024C8D1044F8253030BD89
:1006B000080001402DE9F0410246002500260020F7
:1006C00000230024002791F803C00CF00F0591F8D7
:1006D00003C00CF0100CBCF1000F03D091F802C065
:1006E0004CEA050591F800C0BCF1000F31D0146848
:1006F00000202BE04FF0010C0CFA00F3B1F800C021
:100700000CEA03069E4220D183004FF00F0C0CFA36
:1007100003F7BC4305FA03FC4CEA040491F803C058
:10072000BCF1280F06D14FF0010C0CFA00FCC2F806
:1007300014C00AE091F803C0BCF1480F05D14FF096
:10074000010C0CFA00FCC2F810C0401C0828D1D3E0
:100750001460B1F800C0BCF1FF0F34DD5468002014
:100760002EE000F1080C4FF0010808FA0CF3B1F884
:1007700000C00CEA03069E4221D183004FF00F0C0B
:100780000CFA03F7BC4305FA03FC4CEA040491F8A5
:1007900003C0BCF1280F05D100F1080C08FA0CF8D1
:1007A000C2F8148091F803C0BCF1480F07D100F1E2
:1007B000080C4FF0010808FA0CF8C2F81080401C31
:1007C0000828CED35460BDE8F081416170470161D3
:1007D000704700BFFEE7F8B506460C4615460121F6
:1007E000284600F07BF8ADF8004010208DF803009B
:1007F00003208DF8020069463046FFF75BFF214673
:100800003046FFF7E4FFF8BD00BFFEE7704708B5CC
:100810004FF4A06000F056F817208DF8000001207A
:100820008DF8010000208DF8020001208DF80300F2
:10083000684600F00FF825208DF8000000208DF8A4
:1008400001008DF8020001208DF80300684600F0D9
:1008500001F808BD70B5002100230F22C47804B34D
:10086000154C246804F4E064C4F5E064210AC1F185
:100870000403CA40447804FA03F184781440214305
:1008800009010E4C0678A155047804F01F050124D7
:10089000AC4005786D11AD0005F1E025C5F80041CB
:1008A00009E0047804F01F050124AC40044D0678EB
:1008B000761145F8264070BD0CED00E000E400E044
:1008C00080E100E002490143024A116070470000E4
:1008D0000000FA050CED00E07047000029B1064A5F
:1008E00092690243044B9A6104E0034A926982438D
:1008F000014B9A61704700000010024030B50021A2
:100900000022002400232D4D6D6805F00C0121B15B
:10091000042905D0082923D105E0294D056022E0EE
:10092000274D05601FE0254D6D6805F47012234DBD
:100930006D6805F48034022505EB92421CB9214D07
:10094000554305600BE01D4D6D6805F400351DB184
:100950001C4D5543056002E0194D5543056002E00A
:10096000174D056000BF00BF144D6D6805F0F00124
:100970000909154D6B5C0568DD4045600F4D6D68DC
:1009800005F4E061090A104D6B5C4568DD40856047
:100990000A4D6D6805F46051C90A0B4D6B5C4568E2
:1009A000DD40C560054D6D6805F44041890B074D7C
:1009B0006B5CC568B5FBF3F5056130BD0010024006
:1009C00000127A0000093D00000000201000002005
:1009D00021B1028842F04002028004E002884FF612
:1009E000BF731A40028070470246002013890B40F3
:1009F0000BB1012000E00020704701468889704754
:100A00008181704710B50022028802F441520B88A0
:100A10004C8823438C882343CC8823430C8923436D
:100A20004C8923438C892343CC8923431A43028076
:100A3000838B4FF2FF74234083830B8A038210BDA4
:100A4000704710B500F002F810BD00000CB5002092
:100A5000019000903348006840F4803031490860CC
:100A600000BF3048006800F4003000900198401C3E
:100A70000190009818B90198B0F5A06FF1D12948FC
:100A8000006800F4003010B10120009001E0002067
:100A900000900098012843D12348006840F01000DE
:100AA000214908600846006820F0030008600846F5
:100AB000006840F0020008601A4840681949486020
:100AC0000846406848600846406840F480604860D6
:100AD0000846406820F47C1048600846406840F4AE
:100AE000E81048600846006840F08070086000BF69
:100AF0000C48006800F000700028F9D009484068F0
:100B000020F00300074948600846406840F00200B2
:100B1000486000BF0348406800F00C000828F9D185
:100B20000CBD0000001002400020024010B586B04D
:100B30000446012141F20400FFF7D0FEE020ADF8A9
:100B4000140018208DF8170001208DF8160005A953
:100B50001E48FFF7AFFDE0211C48FFF738FE0420D8
:100B6000ADF8140010208DF8170001208DF8160044
:100B700005A91648FFF79EFD04211448FFF727FE3C
:100B80000020ADF800004FF48270ADF802000020A4
:100B9000ADF804000220ADF806000120ADF8080011
:100BA0004002ADF80A00ADF80C400020ADF80E0090
:100BB0000720ADF8100069460548FFF723FF012123
:100BC0000348FFF705FF06B010BD00000008014014
:100BD0000030014010B5044600BF02210A48FFF76B
:100BE00003FF0028F9D021460748FFF709FF00BF9F
:100BF00001210548FFF7F8FE0028F9D00248FFF769
:100C0000FCFEC0B210BD0000003001402DE9F041F3
:100C100007460C461546002604210B48FFF7D5FD74
:100C20003846FFF7D7FF06E00020FFF7D3FF314635
:100C3000721CD6B26054AE42F6DB04210248FFF7C4
:100C4000C6FDBDE8F0810000000801402DE9F0413B
:100C500007460C461546002604210A48FFF7B5FD55
:100C60003846FFF7B7FF05E03146721CD6B2605C2C
:100C7000FFF7B0FFAE42F7DB04210248FFF7A7FD04
:100C8000BDE8F08100080140042808D14FF0E021C0
:100C9000096941F004014FF0E022116107E04FF0D3
:100CA000E021096921F004014FF0E0221161704751
:100CB0007047000010B51348006840F0010011496A
:100CC000086008464068104908400E4948600846D8
:100CD00000680E4908400B4908600846006820F487
:100CE000802008600846406820F4FE0048604FF409
:100CF0001F008860FFF7A5FE4FF000600449086000
:100D000010BD0000001002400000FFF8FFFFF6FEDB
:100D100008ED00E010B5002440F225515A4800F0DB
:100D2000E1F8002871D0584800F098F9C1B257484E
:100D300002780078401C554B187055488154007853
:100D4000A52802D0002019460870504800780328D2
:100D500070D14F4800784E4949780844C4B24C4895
:100D60008078A04267D14A484078572856D012DC94
:100D7000502869D008DC152827D025282CD0352804
:100D800031D0452871D119E0512861D0522863D063
:100D900053286AD164E0852852D008DC582841D015
:100DA000592843D0652825D075285ED144E0A42871
:100DB00027D0A5282AD0A62857D12BE0354800787F
:100DC00080F008003349087055E03248007880F020
:100DD0000100304908704EE02E48007880F0020093
:100DE0002C49087047E02B48007880F0040029491E
:100DF000087040E02748007880F01000254908700E
:100E000039E001202449087035E03CE00220224905
:100E1000087030E00320204908702CE004201E49AF
:100E2000087028E005201C49087024E006201A49B3
:100E3000087020E023E01FE00120184908701AE044
:100E400002201649087016E007201349087012E0C6
:100E50000820114908700EE009200F4908700AE0C7
:100E60000A200D49087006E0FFE700200A490870D3
:100E70000A49087000BF00BF002004490870202103
:100E8000014800F00DF810BD0038014014000020AA
:100E9000150000201E0000201C0000201D00002066
:100EA00001F40072B2F5007F00D100BFCA43028096
:100EB000704721B1828942F40052828104E0828924
:100EC0004DF6FF731A408281704702460020B1F54B
:100ED000007F00D100BF13880B400BB1012000E060
:100EE0000020704770B50246002400230025002032
:100EF00040F66A16B14200D100BFC1F3421501F0BD
:100F00001F03012606FA03F3012D02D1968933400F
:100F100006E0022D02D1168A334001E0968A334062
:100F20000C12012606FA04F41688344013B10CB1F1
:100F3000012000E0002070BDF0B50346002400262B
:100F40000025002040F66A17B94200D100BF1846BC
:100F5000C1F3421401F01F06012707FA06F5012C20
:100F600001D10C3004E0022C01D1103000E014302B
:100F70001AB107682F43076002E00768AF430760B4
:100F8000F0BD00002DE9F04786B005460E4600246E
:100F9000A24600BFA1460027B08900B100BF2F467E
:100FA0002C8A4CF6FF700440F08804432C82AC89F4
:100FB0004EF6F3100440B088318908437189084324
:100FC0000443AC81AC8A4FF6FF400440B08904432F
:100FD000AC8201A8FFF792FC1F48874202D1DDF8DE
:100FE00010A001E0DDF80CA0A88900F4004040B199
:100FF0000AEBCA0000EB0A1031684900B0FBF1F8B7
:1010000007E00AEBCA0000EB0A1031688900B0FB68
:10101000F1F86420B8FBF0F004012009642101FB21
:101020001089A88900F4004040B1322000EBC900CB
:10103000B0FBF1F000F00700044308E0322000EBC1
:1010400009106421B0FBF1F000F00F0004432C8183
:1010500006B0BDE8F08700000038014001468888EE
:10106000C0F30800704770B504460D4600260EE038
:10107000681EB04205DD205CA15D0844C1B2681E57
:1010800021543146721CD6B2605C00F003F8AE42C7
:10109000EEDB70BD10B5044600BF40210448FFF7E9
:1010A00014FF0028F9D00248001D048010BD000084
:1010B0000038014000BFFEE710B586B004460121AC
:1010C00044F20500FFF70AFC4FF40070ADF814007D
:1010D00003208DF8160018208DF8170005A9154873
:1010E000FFF7E8FA4FF48060ADF8140004208DF8A3
:1010F000170005A90F48FFF7DDFA01940020ADF8AD
:101100000800ADF80A00ADF80C00ADF810000C2096
:10111000ADF80E0001A90848FFF734FF012240F2A4
:1011200025510548FFF708FF01210348FFF7C1FEDD
:1011300006B010BD000801400038014002E008C8B8
:10114000121F08C1002AFAD170477047002001E041
:1011500001C1121F002AFBD170470000014908603D
:10116000704700002000002010B504466FF0040016
:10117000FFF78AFDE11704EB5171C1F3C701074A7C
:1011800011701046007800EB4001C1EBC0104FF623
:10119000FF7101EAC0000249088010BD180000205C
:1011A0001A00002001460D4A12884A434FF0E023FE
:1011B0005A6100229A6101221A6100BF4FF0E022B9
:1011C000106900F001021AB100F48032002AF5D053
:1011D00000224FF0E0231A619A6170471A00002044
:1011E00096B000250026002700201490159012903C
:1011F0001390109011900E900F900C900D9000BFD6
:1012000000BF00BF00BF2C2101A8FEF7A4FF0020F3
:10121000009000244820FFF7A7FF08229101AE4864
:10122000FFF7D9FA4FF4E130FFF746FF3820FFF718
:101230007DFC01222021A848FFF7ECF9FFF7E7FA2F
:101240000020A649087000BFA44800780028FBD001
:101250004FF4FA70FFF7A6FF7C208DF80000012202
:1012600069464120FFF7F2FC01220DF101018120C6
:10127000FFF7CCFC9DF801009DF80010884204D1D6
:101280004FF400719448FFF7A0FA24E193480078E6
:101290000028FAD02922924901A8FEF743FF002036
:1012A0008E49087001A8FFF767F88E48007800F0B3
:1012B000080080B30024002007E000F1140101AA17
:1012C000515C2144CCB2411CC8B20628F5DB9DF824
:1012D0002B00A0421FD19DF819009DF8181040EA7C
:1012E000012005B29DF81B009DF81A1040EA01206C
:1012F00006B29DF81D009DF81C1040EA012007B2BF
:10130000ADF85050ADF85260ADF85470452203214D
:1013100014A800F0E9F87348007800F0010078B3F1
:101320000024002006E0811C01AA515C2144CCB2BB
:10133000411CC8B20628F6DB9DF82800A0421FD148
:101340009DF807009DF8061040EA012000B2ADF8B4
:1013500048009DF809009DF8081040EA012000B2FD
:10136000ADF84A009DF80B009DF80A1040EA0120F4
:1013700000B2ADF84C001522032112A800F0B4F819
:101380005848007800F0020080B30024002007E0F5
:1013900000F1080101AA515C2144CCB2411CC8B241
:1013A0000628F5DB9DF82900A0421FD19DF80D000D
:1013B0009DF80C1040EA012000B2ADF840009DF805
:1013C0000F009DF80E1040EA012000B2ADF8420077
:1013D0009DF811009DF8101040EA012000B2ADF810
:1013E00044002522032110A800F07EF83D48007833
:1013F00000F0040080B30024002007E000F10E019B
:1014000001AA515C2144CCB2411CC8B20628F5DBCC
:101410009DF82A00A0421FD19DF813009DF81210DC
:1014200040EA012000B2ADF838009DF815009DF8A3
:10143000141040EA012000B2ADF83A009DF8170000
:101440009DF8161040EA012000B2ADF83C003522AC
:1014500003210EA800F048F82248007800F01000A0
:10146000C8B30024002007E000F11A0101AA515C72
:101470002144CCB2411CC8B20828F5DB9DF82C00F1
:10148000A04228D19DF81F009DF81E1040EA0120BF
:1014900000B2ADF830009DF821009DF8201040EA20
:1014A000012000B2ADF832009DF823009DF8221013
:1014B00040EA012000B2ADF834009DF825009DF807
:1014C000241040EA012000B2ADF836006522042164
:1014D0000CA800F009F8D9E6000C01401F0000201C
:1014E000240000201E0000202DE9F04186B00746B0
:1014F0000D469046002400266800411D01A8FEF715
:101500002AFE5A222146641C01A842542146641C2A
:1015100042542146641C00F801806806020E2146F0
:10152000641C01A8425400BF11E037F81600C0F354
:1015300007222046611CCCB201A90A5417F81620D4
:101540002046611CCCB201A90A54701CC6B2AE423E
:10155000EBDB6800401DC1B201A8FFF784FD06B0B7
:10156000BDE8F0812DE9F04106460F46FEF78FFEFB
:1015700004000D4618BF0120284320F00040C0F1B0
:101580007F6000F1E040C00F0ED0301C18BF01207A
:10159000384320F00040C0F17F6000F1E040C00F10
:1015A00004BF0120FFF7DAFD20462946BDE8F0819F
:1015B000D015000800000020240000003C110008A5
:1015C000F4150008240000202C0400004C11000831
:1015D00000000000010203040102030406070809D9
:1015E00002040608000000000000000000000000E7
:0415F00000000000F7
:04000005080000ED02
:00000001FF
